{
  "contractName": "Payment",
  "abi": [
    {
      "anonymous": false,
      "inputs": [
        {
          "indexed": false,
          "internalType": "address",
          "name": "from",
          "type": "address"
        },
        {
          "indexed": false,
          "internalType": "address",
          "name": "to",
          "type": "address"
        },
        {
          "indexed": false,
          "internalType": "uint256",
          "name": "amount",
          "type": "uint256"
        },
        {
          "indexed": false,
          "internalType": "uint256",
          "name": "planId",
          "type": "uint256"
        },
        {
          "indexed": false,
          "internalType": "uint256",
          "name": "date",
          "type": "uint256"
        }
      ],
      "name": "paymentSent",
      "type": "event"
    },
    {
      "anonymous": false,
      "inputs": [
        {
          "indexed": false,
          "internalType": "address",
          "name": "merchant",
          "type": "address"
        },
        {
          "indexed": false,
          "internalType": "uint256",
          "name": "planId",
          "type": "uint256"
        },
        {
          "indexed": false,
          "internalType": "uint256",
          "name": "date",
          "type": "uint256"
        }
      ],
      "name": "planCreated",
      "type": "event"
    },
    {
      "anonymous": false,
      "inputs": [
        {
          "indexed": false,
          "internalType": "address",
          "name": "subscriber",
          "type": "address"
        },
        {
          "indexed": false,
          "internalType": "uint256",
          "name": "planId",
          "type": "uint256"
        },
        {
          "indexed": false,
          "internalType": "uint256",
          "name": "date",
          "type": "uint256"
        }
      ],
      "name": "subscriptionCancelled",
      "type": "event"
    },
    {
      "anonymous": false,
      "inputs": [
        {
          "indexed": false,
          "internalType": "address",
          "name": "subscriber",
          "type": "address"
        },
        {
          "indexed": false,
          "internalType": "uint256",
          "name": "planId",
          "type": "uint256"
        },
        {
          "indexed": false,
          "internalType": "uint256",
          "name": "date",
          "type": "uint256"
        }
      ],
      "name": "subscriptionCreated",
      "type": "event"
    },
    {
      "inputs": [],
      "name": "nextPlanId",
      "outputs": [
        {
          "internalType": "uint256",
          "name": "",
          "type": "uint256"
        }
      ],
      "stateMutability": "view",
      "type": "function",
      "constant": true
    },
    {
      "inputs": [
        {
          "internalType": "uint256",
          "name": "",
          "type": "uint256"
        }
      ],
      "name": "plans",
      "outputs": [
        {
          "internalType": "address",
          "name": "merchant",
          "type": "address"
        },
        {
          "internalType": "address",
          "name": "token",
          "type": "address"
        },
        {
          "internalType": "uint256",
          "name": "amount",
          "type": "uint256"
        },
        {
          "internalType": "uint256",
          "name": "frequency",
          "type": "uint256"
        }
      ],
      "stateMutability": "view",
      "type": "function",
      "constant": true
    },
    {
      "inputs": [
        {
          "internalType": "address",
          "name": "",
          "type": "address"
        },
        {
          "internalType": "uint256",
          "name": "",
          "type": "uint256"
        }
      ],
      "name": "subscriptions",
      "outputs": [
        {
          "internalType": "address",
          "name": "subscriber",
          "type": "address"
        },
        {
          "internalType": "uint256",
          "name": "start",
          "type": "uint256"
        },
        {
          "internalType": "uint256",
          "name": "nextPayment",
          "type": "uint256"
        }
      ],
      "stateMutability": "view",
      "type": "function",
      "constant": true
    },
    {
      "inputs": [
        {
          "internalType": "address",
          "name": "token",
          "type": "address"
        },
        {
          "internalType": "uint256",
          "name": "amount",
          "type": "uint256"
        },
        {
          "internalType": "uint256",
          "name": "frequency",
          "type": "uint256"
        }
      ],
      "name": "createPlan",
      "outputs": [],
      "stateMutability": "nonpayable",
      "type": "function"
    },
    {
      "inputs": [
        {
          "internalType": "uint256",
          "name": "planId",
          "type": "uint256"
        }
      ],
      "name": "subscribe",
      "outputs": [],
      "stateMutability": "nonpayable",
      "type": "function"
    },
    {
      "inputs": [
        {
          "internalType": "uint256",
          "name": "planId",
          "type": "uint256"
        }
      ],
      "name": "cancelPlan",
      "outputs": [],
      "stateMutability": "nonpayable",
      "type": "function"
    },
    {
      "inputs": [
        {
          "internalType": "address",
          "name": "subscriber",
          "type": "address"
        },
        {
          "internalType": "uint256",
          "name": "planId",
          "type": "uint256"
        }
      ],
      "name": "pay",
      "outputs": [],
      "stateMutability": "nonpayable",
      "type": "function"
    }
  ],
  "bytecode": "0x608060405234801561001057600080fd5b50611357806100206000396000f3fe608060405234801561001057600080fd5b506004361061007d5760003560e01c806380d6664c1161005b57806380d6664c146100ee578063b16206161461010a578063c40768761461013d578063e95fc90f146101595761007d565b80630f574ba7146100825780635f8d26b21461009e578063623da3d1146100bc575b600080fd5b61009c60048036038101906100979190610d2a565b610175565b005b6100a66104a8565b6040516100b39190611050565b60405180910390f35b6100d660048036038101906100d19190610c6a565b6104ae565b6040516100e593929190610f39565b60405180910390f35b61010860048036038101906101039190610d2a565b610505565b005b610124600480360381019061011f9190610d2a565b6106b6565b6040516101349493929190610ea1565b60405180910390f35b61015760048036038101906101529190610c6a565b610726565b005b610173600480360381019061016e9190610caa565b6109d6565b005b60006001600083815260200190815260200160002060010160009054906101000a900473ffffffffffffffffffffffffffffffffffffffff1690506000600160008481526020019081526020016000209050600073ffffffffffffffffffffffffffffffffffffffff168160000160009054906101000a900473ffffffffffffffffffffffffffffffffffffffff1673ffffffffffffffffffffffffffffffffffffffff16141561025b576040517f08c379a000000000000000000000000000000000000000000000000000000000815260040161025290610fd0565b60405180910390fd5b8173ffffffffffffffffffffffffffffffffffffffff166323b872dd338360000160009054906101000a900473ffffffffffffffffffffffffffffffffffffffff1684600201546040518463ffffffff1660e01b81526004016102c093929190610e6a565b602060405180830381600087803b1580156102da57600080fd5b505af11580156102ee573d6000803e3d6000fd5b505050506040513d601f19601f820116820180604052508101906103129190610cfd565b507f0b0fe1ab83b57204cb4764d95c21f737b7e654e779d08c62204e7bdea29aad35338260000160009054906101000a900473ffffffffffffffffffffffffffffffffffffffff1683600201548642604051610372959493929190610ee6565b60405180910390a160405180606001604052803373ffffffffffffffffffffffffffffffffffffffff1681526020014281526020018260030154426103b7919061107c565b815250600260003373ffffffffffffffffffffffffffffffffffffffff1673ffffffffffffffffffffffffffffffffffffffff168152602001908152602001600020600085815260200190815260200160002060008201518160000160006101000a81548173ffffffffffffffffffffffffffffffffffffffff021916908373ffffffffffffffffffffffffffffffffffffffff16021790555060208201518160010155604082015181600201559050507f86789b07cb44affbc0d04f84e8ccda2e8b915944fdeb9731f8ae309673eeb5d233844260405161049b93929190610f39565b60405180910390a1505050565b60005481565b6002602052816000526040600020602052806000526040600020600091509150508060000160009054906101000a900473ffffffffffffffffffffffffffffffffffffffff16908060010154908060020154905083565b6000600260003373ffffffffffffffffffffffffffffffffffffffff1673ffffffffffffffffffffffffffffffffffffffff16815260200190815260200160002060008381526020019081526020016000209050600073ffffffffffffffffffffffffffffffffffffffff168160000160009054906101000a900473ffffffffffffffffffffffffffffffffffffffff1673ffffffffffffffffffffffffffffffffffffffff1614156105ed576040517f08c379a00000000000000000000000000000000000000000000000000000000081526004016105e490610fb0565b60405180910390fd5b600260003373ffffffffffffffffffffffffffffffffffffffff1673ffffffffffffffffffffffffffffffffffffffff1681526020019081526020016000206000838152602001908152602001600020600080820160006101000a81549073ffffffffffffffffffffffffffffffffffffffff02191690556001820160009055600282016000905550507fc599b265a6279b720be4afbdb5a075c7642f3a7b900f563f928a23039b5dd3293383426040516106aa93929190610f39565b60405180910390a15050565b60016020528060005260406000206000915090508060000160009054906101000a900473ffffffffffffffffffffffffffffffffffffffff16908060010160009054906101000a900473ffffffffffffffffffffffffffffffffffffffff16908060020154908060030154905084565b6000600260008473ffffffffffffffffffffffffffffffffffffffff1673ffffffffffffffffffffffffffffffffffffffff16815260200190815260200160002060008381526020019081526020016000209050600060016000848152602001908152602001600020905060008160010160009054906101000a900473ffffffffffffffffffffffffffffffffffffffff169050600073ffffffffffffffffffffffffffffffffffffffff168360000160009054906101000a900473ffffffffffffffffffffffffffffffffffffffff1673ffffffffffffffffffffffffffffffffffffffff16141561084e576040517f08c379a000000000000000000000000000000000000000000000000000000000815260040161084590611030565b60405180910390fd5b82600201544211610894576040517f08c379a000000000000000000000000000000000000000000000000000000000815260040161088b90610ff0565b60405180910390fd5b8073ffffffffffffffffffffffffffffffffffffffff166323b872dd868460000160009054906101000a900473ffffffffffffffffffffffffffffffffffffffff1685600201546040518463ffffffff1660e01b81526004016108f993929190610e6a565b602060405180830381600087803b15801561091357600080fd5b505af1158015610927573d6000803e3d6000fd5b505050506040513d601f19601f8201168201806040525081019061094b9190610cfd565b507f0b0fe1ab83b57204cb4764d95c21f737b7e654e779d08c62204e7bdea29aad35858360000160009054906101000a900473ffffffffffffffffffffffffffffffffffffffff16846002015487426040516109ab959493929190610ee6565b60405180910390a1816003015483600201546109c7919061107c565b83600201819055505050505050565b600073ffffffffffffffffffffffffffffffffffffffff168373ffffffffffffffffffffffffffffffffffffffff161415610a46576040517f08c379a0000000000000000000000000000000000000000000000000000000008152600401610a3d90610f90565b60405180910390fd5b60008211610a89576040517f08c379a0000000000000000000000000000000000000000000000000000000008152600401610a8090610f70565b60405180910390fd5b60008111610acc576040517f08c379a0000000000000000000000000000000000000000000000000000000008152600401610ac390611010565b60405180910390fd5b60405180608001604052803373ffffffffffffffffffffffffffffffffffffffff1681526020018473ffffffffffffffffffffffffffffffffffffffff16815260200183815260200182815250600160008054815260200190815260200160002060008201518160000160006101000a81548173ffffffffffffffffffffffffffffffffffffffff021916908373ffffffffffffffffffffffffffffffffffffffff16021790555060208201518160010160006101000a81548173ffffffffffffffffffffffffffffffffffffffff021916908373ffffffffffffffffffffffffffffffffffffffff16021790555060408201518160020155606082015181600301559050507f5db8a474dd1b860795098ae2e0e64d59a3d617004b048eadf64129c3ec30aa783360005442604051610c0793929190610f39565b60405180910390a1600080815480929190610c219061111a565b9190505550505050565b600081359050610c3a816112dc565b92915050565b600081519050610c4f816112f3565b92915050565b600081359050610c648161130a565b92915050565b60008060408385031215610c8157610c80611192565b5b6000610c8f85828601610c2b565b9250506020610ca085828601610c55565b9150509250929050565b600080600060608486031215610cc357610cc2611192565b5b6000610cd186828701610c2b565b9350506020610ce286828701610c55565b9250506040610cf386828701610c55565b9150509250925092565b600060208284031215610d1357610d12611192565b5b6000610d2184828501610c40565b91505092915050565b600060208284031215610d4057610d3f611192565b5b6000610d4e84828501610c55565b91505092915050565b610d60816110d2565b82525050565b6000610d7360208361106b565b9150610d7e82611197565b602082019050919050565b6000610d9660168361106b565b9150610da1826111c0565b602082019050919050565b6000610db9601b8361106b565b9150610dc4826111e9565b602082019050919050565b6000610ddc60138361106b565b9150610de782611212565b602082019050919050565b6000610dff600b8361106b565b9150610e0a8261123b565b602082019050919050565b6000610e2260248361106b565b9150610e2d82611264565b604082019050919050565b6000610e4560198361106b565b9150610e50826112b3565b602082019050919050565b610e6481611110565b82525050565b6000606082019050610e7f6000830186610d57565b610e8c6020830185610d57565b610e996040830184610e5b565b949350505050565b6000608082019050610eb66000830187610d57565b610ec36020830186610d57565b610ed06040830185610e5b565b610edd6060830184610e5b565b95945050505050565b600060a082019050610efb6000830188610d57565b610f086020830187610d57565b610f156040830186610e5b565b610f226060830185610e5b565b610f2f6080830184610e5b565b9695505050505050565b6000606082019050610f4e6000830186610d57565b610f5b6020830185610e5b565b610f686040830184610e5b565b949350505050565b60006020820190508181036000830152610f8981610d66565b9050919050565b60006020820190508181036000830152610fa981610d89565b9050919050565b60006020820190508181036000830152610fc981610dac565b9050919050565b60006020820190508181036000830152610fe981610dcf565b9050919050565b6000602082019050818103600083015261100981610df2565b9050919050565b6000602082019050818103600083015261102981610e15565b9050919050565b6000602082019050818103600083015261104981610e38565b9050919050565b60006020820190506110656000830184610e5b565b92915050565b600082825260208201905092915050565b600061108782611110565b915061109283611110565b9250827fffffffffffffffffffffffffffffffffffffffffffffffffffffffffffffffff038211156110c7576110c6611163565b5b828201905092915050565b60006110dd826110f0565b9050919050565b60008115159050919050565b600073ffffffffffffffffffffffffffffffffffffffff82169050919050565b6000819050919050565b600061112582611110565b91507fffffffffffffffffffffffffffffffffffffffffffffffffffffffffffffffff82141561115857611157611163565b5b600182019050919050565b7f4e487b7100000000000000000000000000000000000000000000000000000000600052601160045260246000fd5b600080fd5b7f416d6f756e74206d7573742062652067726561746572207468616e207a65726f600082015250565b7f416464726573732063616e6e6f74206265206e756c6c00000000000000000000600082015250565b7f537562736372697074696f6e20646f6573206e6f742065786973740000000000600082015250565b7f506c616e20646f6573206e6f7420657869737400000000000000000000000000600082015250565b7f4e6f742064756520796574000000000000000000000000000000000000000000600082015250565b7f4672657175656e637279206d7573742062652067726561746572207468616e2060008201527f7a65726f00000000000000000000000000000000000000000000000000000000602082015250565b7f5375627363726962657220646f6573206e6f7420657869737400000000000000600082015250565b6112e5816110d2565b81146112f057600080fd5b50565b6112fc816110e4565b811461130757600080fd5b50565b61131381611110565b811461131e57600080fd5b5056fea264697066735822122008ee55be35a474d040502efea3ade766abe60970178fa081a3f52b2f1ac76dcf64736f6c63430008060033",
  "immutableReferences": {},
  "source": "// SPDX-License-Identifier: MIT\n\npragma solidity 0.8.6;\n\nimport \"openzeppelin-solidity/contracts/token/ERC20/ERC20.sol\";\n\ncontract Payment {\n\tuint public nextPlanId;\n\n\tstruct Plan {\n\t\taddress merchant;\n\t\taddress token;\n\t\tuint amount;\n\t\tuint frequency;\n\t}\n\n\tstruct Subscription {\n\t\taddress subscriber;\n\t\tuint start;\n\t\tuint nextPayment;\n\t}\n\tmapping (uint => Plan) public plans;\n\tmapping (address => mapping(uint => Subscription)) public subscriptions;\n\n\t// ===EVENTS===\n\tevent planCreated(\n\t\taddress merchant,\n\t\tuint planId,\n\t\tuint date\n\t);\n\n\tevent subscriptionCreated(\n\t\taddress subscriber,\n\t\tuint planId,\n\t\tuint date\n\t);\n\n\tevent subscriptionCancelled(\n\t\taddress subscriber,\n\t\tuint planId,\n\t\tuint date\n\t);\n\n\tevent paymentSent(\n\t\taddress from,\n\t\taddress to,\n\t\tuint amount,\n\t\tuint planId,\n\t\tuint date\n\t);\n\n\t// external functions can only be invoked from outside the contract.\n\tfunction createPlan(address token, uint amount, uint frequency) external {\n\t\trequire(token != address(0), 'Address cannot be null');\n\t\trequire(amount > 0, 'Amount must be greater than zero');\n\t\trequire(frequency > 0, 'Frequencry must be greater than zero');\n\t\tplans[nextPlanId] = Plan(msg.sender, token, amount, frequency);\n\t\temit planCreated(msg.sender, nextPlanId, block.timestamp);\n\t\t\n\t\tnextPlanId++;\n\t}\n\n\t// EG: \tmapping (msg.sender => mapping(planId => Subscription)) public subscriptions;\n\t// 0x077... => (p1 => {subscriber:0x077..., start:date, nextPayment: date})\n\t// Find subscription by subcriber and planId;\n\tfunction subscribe(uint planId) external {\n\t\tIERC20 token = IERC20(plans[planId].token);\n\t\tPlan storage plan = plans[planId];\n\t\trequire(plan.merchant != address(0),'Plan does not exist');\n\n\t\ttoken.transferFrom(msg.sender, plan.merchant, plan.amount);\n\t\temit paymentSent(msg.sender, plan.merchant, plan.amount, planId, block.timestamp);\n\n\t\tsubscriptions[msg.sender][planId] = Subscription(msg.sender, block.timestamp, block.timestamp + plan.frequency);\n\t\temit subscriptionCreated(msg.sender, planId, block.timestamp);\n\t}\n\n\tfunction cancelPlan(uint planId) external {\n\t\tSubscription storage subscription = subscriptions[msg.sender][planId];\n\t\trequire(subscription.subscriber != address(0), 'Subscription does not exist');\n\n\t\tdelete subscriptions[msg.sender][planId];\n\t\temit subscriptionCancelled(msg.sender, planId, block.timestamp);\n\t}\n\n\tfunction pay(address subscriber, uint planId) external {\n\t\tSubscription storage subscription = subscriptions[subscriber][planId];\n\t\tPlan storage plan = plans[planId];\n\t\tIERC20 token = IERC20(plan.token);\n\t\trequire(subscription.subscriber != address(0), 'Subscriber does not exist');\n\t\trequire(block.timestamp > subscription.nextPayment, 'Not due yet');\n\n\t\ttoken.transferFrom(subscriber, plan.merchant, plan.amount);\n\t\temit paymentSent(subscriber, plan.merchant, plan.amount, planId, block.timestamp);\n\t\tsubscription.nextPayment = subscription.nextPayment + plan.frequency;\n\t}\n}\n",
  "sourcePath": "/home/binod/projects/blockchain/c-subscription/contracts/Payment.sol",
  "compiler": {
    "name": "solc",
    "version": "0.8.6+commit.11564f7e.Emscripten.clang"
  },
  "schemaVersion": "3.4.1",
  "updatedAt": "2021-07-25T04:56:13.403Z",
  "networkType": "ethereum",
  "devdoc": {
    "kind": "dev",
    "methods": {},
    "version": 1
  },
  "userdoc": {
    "kind": "user",
    "methods": {},
    "version": 1
  }
}