{
  "contractName": "Payment",
  "abi": [
    {
      "anonymous": false,
      "inputs": [
        {
          "indexed": false,
          "internalType": "address",
          "name": "from",
          "type": "address"
        },
        {
          "indexed": false,
          "internalType": "address",
          "name": "to",
          "type": "address"
        },
        {
          "indexed": false,
          "internalType": "uint256",
          "name": "amount",
          "type": "uint256"
        },
        {
          "indexed": false,
          "internalType": "uint256",
          "name": "planId",
          "type": "uint256"
        },
        {
          "indexed": false,
          "internalType": "uint256",
          "name": "date",
          "type": "uint256"
        }
      ],
      "name": "paymentSent",
      "type": "event"
    },
    {
      "anonymous": false,
      "inputs": [
        {
          "indexed": false,
          "internalType": "address",
          "name": "merchant",
          "type": "address"
        },
        {
          "indexed": false,
          "internalType": "uint256",
          "name": "planId",
          "type": "uint256"
        },
        {
          "indexed": false,
          "internalType": "uint256",
          "name": "date",
          "type": "uint256"
        }
      ],
      "name": "planCreated",
      "type": "event"
    },
    {
      "anonymous": false,
      "inputs": [
        {
          "indexed": false,
          "internalType": "address",
          "name": "subscriber",
          "type": "address"
        },
        {
          "indexed": false,
          "internalType": "uint256",
          "name": "planId",
          "type": "uint256"
        },
        {
          "indexed": false,
          "internalType": "uint256",
          "name": "date",
          "type": "uint256"
        }
      ],
      "name": "subscriptionCancelled",
      "type": "event"
    },
    {
      "anonymous": false,
      "inputs": [
        {
          "indexed": false,
          "internalType": "address",
          "name": "subscriber",
          "type": "address"
        },
        {
          "indexed": false,
          "internalType": "uint256",
          "name": "planId",
          "type": "uint256"
        },
        {
          "indexed": false,
          "internalType": "uint256",
          "name": "date",
          "type": "uint256"
        }
      ],
      "name": "subscriptionCreated",
      "type": "event"
    },
    {
      "inputs": [],
      "name": "nextPlanId",
      "outputs": [
        {
          "internalType": "uint256",
          "name": "",
          "type": "uint256"
        }
      ],
      "stateMutability": "view",
      "type": "function",
      "constant": true
    },
    {
      "inputs": [
        {
          "internalType": "address",
          "name": "",
          "type": "address"
        },
        {
          "internalType": "uint256",
          "name": "",
          "type": "uint256"
        }
      ],
      "name": "subscriptions",
      "outputs": [
        {
          "internalType": "address",
          "name": "subscriber",
          "type": "address"
        },
        {
          "internalType": "uint256",
          "name": "start",
          "type": "uint256"
        },
        {
          "internalType": "uint256",
          "name": "nextPayment",
          "type": "uint256"
        }
      ],
      "stateMutability": "view",
      "type": "function",
      "constant": true
    },
    {
      "inputs": [
        {
          "internalType": "address",
          "name": "token",
          "type": "address"
        },
        {
          "internalType": "uint256",
          "name": "amount",
          "type": "uint256"
        },
        {
          "internalType": "uint256",
          "name": "frequency",
          "type": "uint256"
        }
      ],
      "name": "createPlan",
      "outputs": [],
      "stateMutability": "nonpayable",
      "type": "function"
    },
    {
      "inputs": [
        {
          "internalType": "uint256",
          "name": "planId",
          "type": "uint256"
        }
      ],
      "name": "subscribe",
      "outputs": [],
      "stateMutability": "nonpayable",
      "type": "function"
    },
    {
      "inputs": [
        {
          "internalType": "uint256",
          "name": "planId",
          "type": "uint256"
        }
      ],
      "name": "cancelPlan",
      "outputs": [],
      "stateMutability": "nonpayable",
      "type": "function"
    },
    {
      "inputs": [
        {
          "internalType": "address",
          "name": "subscriber",
          "type": "address"
        },
        {
          "internalType": "uint256",
          "name": "planId",
          "type": "uint256"
        }
      ],
      "name": "pay",
      "outputs": [],
      "stateMutability": "nonpayable",
      "type": "function"
    }
  ],
  "bytecode": "0x608060405234801561001057600080fd5b50611217806100206000396000f3fe608060405234801561001057600080fd5b50600436106100625760003560e01c80630f574ba7146100675780635f8d26b214610083578063623da3d1146100a157806380d6664c146100d3578063c4076876146100ef578063e95fc90f1461010b575b600080fd5b610081600480360381019061007c9190610c2f565b610127565b005b61008b61045a565b6040516100989190610f10565b60405180910390f35b6100bb60048036038101906100b69190610b6f565b610460565b6040516100ca93929190610df9565b60405180910390f35b6100ed60048036038101906100e89190610c2f565b6104b7565b005b61010960048036038101906101049190610b6f565b610668565b005b61012560048036038101906101209190610baf565b610918565b005b60006001600083815260200190815260200160002060010160009054906101000a900473ffffffffffffffffffffffffffffffffffffffff1690506000600160008481526020019081526020016000209050600073ffffffffffffffffffffffffffffffffffffffff168160000160009054906101000a900473ffffffffffffffffffffffffffffffffffffffff1673ffffffffffffffffffffffffffffffffffffffff16141561020d576040517f08c379a000000000000000000000000000000000000000000000000000000000815260040161020490610e90565b60405180910390fd5b8173ffffffffffffffffffffffffffffffffffffffff166323b872dd338360000160009054906101000a900473ffffffffffffffffffffffffffffffffffffffff1684600201546040518463ffffffff1660e01b815260040161027293929190610d6f565b602060405180830381600087803b15801561028c57600080fd5b505af11580156102a0573d6000803e3d6000fd5b505050506040513d601f19601f820116820180604052508101906102c49190610c02565b507f0b0fe1ab83b57204cb4764d95c21f737b7e654e779d08c62204e7bdea29aad35338260000160009054906101000a900473ffffffffffffffffffffffffffffffffffffffff1683600201548642604051610324959493929190610da6565b60405180910390a160405180606001604052803373ffffffffffffffffffffffffffffffffffffffff1681526020014281526020018260030154426103699190610f3c565b815250600260003373ffffffffffffffffffffffffffffffffffffffff1673ffffffffffffffffffffffffffffffffffffffff168152602001908152602001600020600085815260200190815260200160002060008201518160000160006101000a81548173ffffffffffffffffffffffffffffffffffffffff021916908373ffffffffffffffffffffffffffffffffffffffff16021790555060208201518160010155604082015181600201559050507f86789b07cb44affbc0d04f84e8ccda2e8b915944fdeb9731f8ae309673eeb5d233844260405161044d93929190610df9565b60405180910390a1505050565b60005481565b6002602052816000526040600020602052806000526040600020600091509150508060000160009054906101000a900473ffffffffffffffffffffffffffffffffffffffff16908060010154908060020154905083565b6000600260003373ffffffffffffffffffffffffffffffffffffffff1673ffffffffffffffffffffffffffffffffffffffff16815260200190815260200160002060008381526020019081526020016000209050600073ffffffffffffffffffffffffffffffffffffffff168160000160009054906101000a900473ffffffffffffffffffffffffffffffffffffffff1673ffffffffffffffffffffffffffffffffffffffff16141561059f576040517f08c379a000000000000000000000000000000000000000000000000000000000815260040161059690610e70565b60405180910390fd5b600260003373ffffffffffffffffffffffffffffffffffffffff1673ffffffffffffffffffffffffffffffffffffffff1681526020019081526020016000206000838152602001908152602001600020600080820160006101000a81549073ffffffffffffffffffffffffffffffffffffffff02191690556001820160009055600282016000905550507fc599b265a6279b720be4afbdb5a075c7642f3a7b900f563f928a23039b5dd32933834260405161065c93929190610df9565b60405180910390a15050565b6000600260008473ffffffffffffffffffffffffffffffffffffffff1673ffffffffffffffffffffffffffffffffffffffff16815260200190815260200160002060008381526020019081526020016000209050600060016000848152602001908152602001600020905060008160010160009054906101000a900473ffffffffffffffffffffffffffffffffffffffff169050600073ffffffffffffffffffffffffffffffffffffffff168360000160009054906101000a900473ffffffffffffffffffffffffffffffffffffffff1673ffffffffffffffffffffffffffffffffffffffff161415610790576040517f08c379a000000000000000000000000000000000000000000000000000000000815260040161078790610ef0565b60405180910390fd5b826002015442116107d6576040517f08c379a00000000000000000000000000000000000000000000000000000000081526004016107cd90610eb0565b60405180910390fd5b8073ffffffffffffffffffffffffffffffffffffffff166323b872dd868460000160009054906101000a900473ffffffffffffffffffffffffffffffffffffffff1685600201546040518463ffffffff1660e01b815260040161083b93929190610d6f565b602060405180830381600087803b15801561085557600080fd5b505af1158015610869573d6000803e3d6000fd5b505050506040513d601f19601f8201168201806040525081019061088d9190610c02565b507f0b0fe1ab83b57204cb4764d95c21f737b7e654e779d08c62204e7bdea29aad35858360000160009054906101000a900473ffffffffffffffffffffffffffffffffffffffff16846002015487426040516108ed959493929190610da6565b60405180910390a1816003015483600201546109099190610f3c565b83600201819055505050505050565b600073ffffffffffffffffffffffffffffffffffffffff168373ffffffffffffffffffffffffffffffffffffffff161415610988576040517f08c379a000000000000000000000000000000000000000000000000000000000815260040161097f90610e50565b60405180910390fd5b600082116109cb576040517f08c379a00000000000000000000000000000000000000000000000000000000081526004016109c290610e30565b60405180910390fd5b60008111610a0e576040517f08c379a0000000000000000000000000000000000000000000000000000000008152600401610a0590610ed0565b60405180910390fd5b60405180608001604052803373ffffffffffffffffffffffffffffffffffffffff1681526020018473ffffffffffffffffffffffffffffffffffffffff16815260200183815260200182815250600160008054815260200190815260200160002060008201518160000160006101000a81548173ffffffffffffffffffffffffffffffffffffffff021916908373ffffffffffffffffffffffffffffffffffffffff16021790555060208201518160010160006101000a81548173ffffffffffffffffffffffffffffffffffffffff021916908373ffffffffffffffffffffffffffffffffffffffff1602179055506040820151816002015560608201518160030155905050600080815480929190610b2690610fda565b9190505550505050565b600081359050610b3f8161119c565b92915050565b600081519050610b54816111b3565b92915050565b600081359050610b69816111ca565b92915050565b60008060408385031215610b8657610b85611052565b5b6000610b9485828601610b30565b9250506020610ba585828601610b5a565b9150509250929050565b600080600060608486031215610bc857610bc7611052565b5b6000610bd686828701610b30565b9350506020610be786828701610b5a565b9250506040610bf886828701610b5a565b9150509250925092565b600060208284031215610c1857610c17611052565b5b6000610c2684828501610b45565b91505092915050565b600060208284031215610c4557610c44611052565b5b6000610c5384828501610b5a565b91505092915050565b610c6581610f92565b82525050565b6000610c78602083610f2b565b9150610c8382611057565b602082019050919050565b6000610c9b601683610f2b565b9150610ca682611080565b602082019050919050565b6000610cbe601b83610f2b565b9150610cc9826110a9565b602082019050919050565b6000610ce1601383610f2b565b9150610cec826110d2565b602082019050919050565b6000610d04600b83610f2b565b9150610d0f826110fb565b602082019050919050565b6000610d27602483610f2b565b9150610d3282611124565b604082019050919050565b6000610d4a601983610f2b565b9150610d5582611173565b602082019050919050565b610d6981610fd0565b82525050565b6000606082019050610d846000830186610c5c565b610d916020830185610c5c565b610d9e6040830184610d60565b949350505050565b600060a082019050610dbb6000830188610c5c565b610dc86020830187610c5c565b610dd56040830186610d60565b610de26060830185610d60565b610def6080830184610d60565b9695505050505050565b6000606082019050610e0e6000830186610c5c565b610e1b6020830185610d60565b610e286040830184610d60565b949350505050565b60006020820190508181036000830152610e4981610c6b565b9050919050565b60006020820190508181036000830152610e6981610c8e565b9050919050565b60006020820190508181036000830152610e8981610cb1565b9050919050565b60006020820190508181036000830152610ea981610cd4565b9050919050565b60006020820190508181036000830152610ec981610cf7565b9050919050565b60006020820190508181036000830152610ee981610d1a565b9050919050565b60006020820190508181036000830152610f0981610d3d565b9050919050565b6000602082019050610f256000830184610d60565b92915050565b600082825260208201905092915050565b6000610f4782610fd0565b9150610f5283610fd0565b9250827fffffffffffffffffffffffffffffffffffffffffffffffffffffffffffffffff03821115610f8757610f86611023565b5b828201905092915050565b6000610f9d82610fb0565b9050919050565b60008115159050919050565b600073ffffffffffffffffffffffffffffffffffffffff82169050919050565b6000819050919050565b6000610fe582610fd0565b91507fffffffffffffffffffffffffffffffffffffffffffffffffffffffffffffffff82141561101857611017611023565b5b600182019050919050565b7f4e487b7100000000000000000000000000000000000000000000000000000000600052601160045260246000fd5b600080fd5b7f416d6f756e74206d7573742062652067726561746572207468616e207a65726f600082015250565b7f416464726573732063616e6e6f74206265206e756c6c00000000000000000000600082015250565b7f537562736372697074696f6e20646f6573206e6f742065786973740000000000600082015250565b7f506c616e20646f6573206e6f7420657869737400000000000000000000000000600082015250565b7f4e6f742064756520796574000000000000000000000000000000000000000000600082015250565b7f4672657175656e637279206d7573742062652067726561746572207468616e2060008201527f7a65726f00000000000000000000000000000000000000000000000000000000602082015250565b7f5375627363726962657220646f6573206e6f7420657869737400000000000000600082015250565b6111a581610f92565b81146111b057600080fd5b50565b6111bc81610fa4565b81146111c757600080fd5b50565b6111d381610fd0565b81146111de57600080fd5b5056fea26469706673582212200914174723848626c0db1804a8e04f9ee0bc4b6e20721480f0adf9ba933842c864736f6c63430008060033",
  "immutableReferences": {},
  "source": "// SPDX-License-Identifier: MIT\n\npragma solidity 0.8.6;\n\nimport \"openzeppelin-solidity/contracts/token/ERC20/ERC20.sol\";\n\ncontract Payment {\n\tuint public nextPlanId;\n\n\tstruct Plan {\n\t\taddress merchant;\n\t\taddress token;\n\t\tuint amount;\n\t\tuint frequency;\n\t}\n\n\tstruct Subscription {\n\t\taddress subscriber;\n\t\tuint start;\n\t\tuint nextPayment;\n\t}\n\tmapping (uint => Plan) plans;\n\tmapping (address => mapping(uint => Subscription)) public subscriptions;\n\n\t// ===EVENTS===\n\tevent planCreated(\n\t\taddress merchant,\n\t\tuint planId,\n\t\tuint date\n\t);\n\n\tevent subscriptionCreated(\n\t\taddress subscriber,\n\t\tuint planId,\n\t\tuint date\n\t);\n\n\tevent subscriptionCancelled(\n\t\taddress subscriber,\n\t\tuint planId,\n\t\tuint date\n\t);\n\n\tevent paymentSent(\n\t\taddress from,\n\t\taddress to,\n\t\tuint amount,\n\t\tuint planId,\n\t\tuint date\n\t);\n\n\t// external functions can only be invoked from outside the contract.\n\tfunction createPlan(address token, uint amount, uint frequency) external {\n\t\trequire(token != address(0), 'Address cannot be null');\n\t\trequire(amount > 0, 'Amount must be greater than zero');\n\t\trequire(frequency > 0, 'Frequencry must be greater than zero');\n\t\tplans[nextPlanId] = Plan(msg.sender, token, amount, frequency);\n\t\tnextPlanId++;\n\t}\n\n\t// EG: \tmapping (msg.sender => mapping(planId => Subscription)) public subscriptions;\n\t// 0x077... => (p1 => {subscriber:0x077..., start:date, nextPayment: date})\n\t// Find subscription by subcriber and planId;\n\tfunction subscribe(uint planId) external {\n\t\tIERC20 token = IERC20(plans[planId].token);\n\t\tPlan storage plan = plans[planId];\n\t\trequire(plan.merchant != address(0),'Plan does not exist');\n\n\t\ttoken.transferFrom(msg.sender, plan.merchant, plan.amount);\n\t\temit paymentSent(msg.sender, plan.merchant, plan.amount, planId, block.timestamp);\n\n\t\tsubscriptions[msg.sender][planId] = Subscription(msg.sender, block.timestamp, block.timestamp + plan.frequency);\n\t\temit subscriptionCreated(msg.sender, planId, block.timestamp);\n\t}\n\n\tfunction cancelPlan(uint planId) external {\n\t\tSubscription storage subscription = subscriptions[msg.sender][planId];\n\t\trequire(subscription.subscriber != address(0), 'Subscription does not exist');\n\n\t\tdelete subscriptions[msg.sender][planId];\n\t\temit subscriptionCancelled(msg.sender, planId, block.timestamp);\n\t}\n\n\tfunction pay(address subscriber, uint planId) external {\n\t\tSubscription storage subscription = subscriptions[subscriber][planId];\n\t\tPlan storage plan = plans[planId];\n\t\tIERC20 token = IERC20(plan.token);\n\t\trequire(subscription.subscriber != address(0), 'Subscriber does not exist');\n\t\trequire(block.timestamp > subscription.nextPayment, 'Not due yet');\n\n\t\ttoken.transferFrom(subscriber, plan.merchant, plan.amount);\n\t\temit paymentSent(subscriber, plan.merchant, plan.amount, planId, block.timestamp);\n\t\tsubscription.nextPayment = subscription.nextPayment + plan.frequency;\n\t}\n}\n",
  "sourcePath": "/home/binod/projects/blockchain/c-subscription/contracts/Payment.sol",
  "compiler": {
    "name": "solc",
    "version": "0.8.6+commit.11564f7e.Emscripten.clang"
  },
  "schemaVersion": "3.4.1",
  "updatedAt": "2021-07-25T03:34:33.831Z",
  "networkType": "ethereum",
  "devdoc": {
    "kind": "dev",
    "methods": {},
    "version": 1
  },
  "userdoc": {
    "kind": "user",
    "methods": {},
    "version": 1
  }
}